:100000000C94A7000C949E010C94C4000C94C400A2
:100010000C94C4000C94C4000C94C4000C94C40050
:100020000C94C4000C94C4000C94C4000C94C40040
:100030000C94C4000C94C4000C94C4000C94C40030
:100040000C94C4000C94C4000C94C4000C94C40020
:100050000C94C40000407A10F35A00A0724E1809A4
:100060000010A5D4E80000E87648170000E40B541F
:10007000020000CA9A3B000000E1F50500008096EE
:100080009800000040420F000000A0860100000020
:10009000102700000000E8030000000064000000DA
:1000A00000000A00000000000100000000002C76A3
:1000B000D888DC674F0823DFC1DFAE59E1B1B796BE
:1000C000E5E3E453C63AE651997696E8E6C284261B
:1000D000EB898C9B62ED407C6FFCEFBC9C9F40F2F7
:1000E000BAA56FA5F490055A2AF75C936B6CF96773
:1000F0006DC11BFCE0E40D47FEF520E6B500D0ED38
:10010000902E0300943577050080841E080000209F
:100110004E0A000000C80C333333330F986E12833D
:100120001141EF8D2114893BE65516CFFEE6DB1811
:10013000D1844B381BF77C1D901DA4BBE4242032D6
:1001400084725E228100C9F124ECA1E53D271124CF
:100150001FBECFE5D8E0DEBFCDBF11E0A0E6B0E026
:10016000ECE7FCE102C005900D92A43AB107D9F783
:1001700011E0A4EAB1E001C01D92AF3AB107E1F786
:100180000E94B5020C943C0E0C940000AF92BF92FA
:10019000CF92DF92EF92FF920F931F93AA2797FDC2
:1001A000A095BA2FBC01CD010E94A7085B016C018C
:1001B00020E030E04AEF54E40E9471067B018C019C
:1001C00020E030E040E85FE30E94770888231CF4D9
:1001D00061E070E024C0C801B70120E03FEF4FE7C5
:1001E00057E40E9417081816B4F4C601B50120E0C0
:1001F00030E040E251E40E9471060E949B0488ECCA
:1002000090E005C0FC013197F1F761507040611535
:100210007105C1F707C0C801B7010E949B04CB015B
:100220000197F1F71F910F91FF90EF90DF90CF9022
:10023000BF90AF900895AF92BF92CF92DF92EF92AE
:10024000FF920F931F93AA2797FDA095BA2FBC0189
:10025000CD010E94A7085B016C012BEA3AEA4AE251
:1002600050E40E9471067B018C0120E030E040E800
:100270005FE30E947708882314F461E054C0C8014A
:10028000B70120E030E04FE753E40E94170818164A
:100290000CF045C0C601B50120E030E04AE754E467
:1002A0000E946B075B016C0120E030E04AEF54E4F0
:1002B0000E9471067B018C0120E030E040E85FE3A2
:1002C0000E94770888231CF461E070E024C0C80114
:1002D000B70120E03FEF4FE757E40E9417081816D8
:1002E000B4F4C601B50120E030E040E251E40E94E0
:1002F00071060E949B0488EC90E005C0FC013197D8
:10030000F1F76150704061157105C1F70EC0C80169
:10031000B7010E949B04CB010197F1F706C0C80109
:10032000B7010E949B046A95F1F71F910F91FF900E
:10033000EF90DF90CF90BF90AF9008951F920F92F3
:100340000FB60F9211242F933F938F939F93109288
:10035000A9011092A80121E030E03093AE01209372
:10036000AD0183B38F70873029F41092AC011092E5
:10037000AB0182C0823029F43093AC012093AB01F1
:100380007BC0863019F482E090E004C08A3039F4F2
:1003900083E090E09093AC018093AB016DC081301D
:1003A00019F484E090E0F6CF853019F485E090E010
:1003B000F1CF893019F486E090E0ECCF882319F46E
:1003C00087E090E0E7CF843019F488E090E0E2CF56
:1003D000883019F489E090E0DDCF8F3061F410921D
:1003E000AC011092AB0181E090E09093A901809361
:1003F000A8018BE229C08E3061F41092AC011092FA
:10040000AB0182E090E09093A9018093A8018DE276
:100410001BC08D3061F41092AC011092AB0183E0EF
:1004200090E09093A9018093A80188E70DC08C30DB
:1004300071F41092AC011092AB0184E090E09093C3
:10044000A9018093A8018FE28093AA0115C08B3087
:1004500039F41092AC011092AB0185E090E008C035
:10046000833051F41092AC011092AB0186E090E021
:100470009093A9018093A8019F918F913F912F9113
:100480000F900FBE0F901F90189514BA8FEF87BB77
:100490008E98089588BB95989698979A81E090E0F9
:1004A0000E941B01979884E690E00E941B0108952A
:1004B0008FEF87BB81B3806F81BB979880ED97E00A
:1004C0000E941B0188E30E944A028EE00E944A02B9
:1004D00081E00E944A0280ED97E00E941B0186E0C5
:1004E0000E944A02089588BB959A9698979A81E04F
:1004F00090E00E941B01979884E690E00E941B0107
:100500000895DF93CF9300D000D0CDB7DEB790E849
:10051000998390EC9A8394E99B8394ED9C8381501A
:10052000FE01E60FF11D9081890F0E944A0284E6C8
:1005300090E00E941B010F900F900F900F90CF91B1
:10054000DF9108951F93CF93DF93EC0110E003C078
:100550000E9473021F5FFE01E10FF11D808188235D
:10056000B9F7DF91CF911F9108952F923F924F924B
:100570005F926F927F928F929F92AF92BF92CF9233
:10058000DF92EF92FF920F931F93DF93CF93CDB73C
:10059000DEB76C970FB6F894DEBF0FBECDBF80E01C
:1005A00090E0A0E0B0E089879A87AB87BC87109283
:1005B000AC011092AB011092AE011092AD01198204
:1005C0001A821B821C821D821E821F8218868987C6
:1005D0009A87AB87BC871092A9011092A8018BE281
:1005E0008093AA0114BA8FEF87BB8E988BB7806C6B
:1005F0008BBF8FE085BF82E084BF80EC8ABF789498
:100600000E94580281E061E00E94810280E690E051
:100610000E94A20281E062E00E9481028FE690E0E7
:100620000E94A20288EE93E00E94C60081E00E9430
:100630004A0281E061E00E9481028DE790E00E9421
:10064000A20281E062E00E94810288E890E00E94BC
:10065000A20288EE93E00E94C60081E00E944A0256
:1006600081E061E00E94810291E0292E312C0F2E61
:10067000F0E06F2EF0E07F2EF0E08F2EF0E09F2E66
:10068000F02D8DE0482E512C4C0E5D1E8091AD0159
:100690009091AE01892B09F44CC18091A6019091F3
:1006A000A701892BD9F019821A821B821C821D8214
:1006B0001E821F82188669867A868B869C86109297
:1006C000A7011092A6011092A5011092A40181E049
:1006D0000E944A0281E061E00E9481028091A801AB
:1006E0009091A901892B09F047C08091A4019091B4
:1006F000A501892BE9F082E090E00E94C6006D819F
:100700007E818F819885E090AB01F090AC0100E094
:1007100010E02AE030E040E050E00E944E0BE60E90
:10072000F71E081F191FED82FE820F8318871CC059
:1007300082E090E00E94C60069817A818B819C8171
:10074000E090AB01F090AC0100E010E02AE030E076
:1007500040E050E00E944E0BE60EF71E081F191FE6
:10076000E982FA820B831C838091AB019091AC01EA
:10077000805D0E947302D9C08091A8019091A90167
:10078000019791F08091A8019091A901029761F0E1
:100790008091A8019091A901039731F08091A8015F
:1007A0009091A901049749F48091AA010E947302D3
:1007B0003092A5012092A401B8C08091A801909127
:1007C000A901059709F090C081E062E00E948102D2
:1007D0008091AA018B3269F429813A814B815C8135
:1007E0006D817E818F819885620F731F841F951F95
:1007F0001FC08091AA018D3269F469817A818B8151
:100800009C812D813E814F815885621B730B840B27
:10081000950B0EC08091AA01883769F429813A812D
:100820004B815C816D817E818F8198850E944E0B0A
:100830000E94A7081AC08091AA018F32D1F4698161
:100840007A818B819C81ED80FE800F8118850E94CA
:10085000A7085B016C01C801B7010E94A7089B01B2
:10086000AC01C601B5010E946B0769877A878B8747
:100870009C878091AA018F3201F5A980BA80CB8034
:10088000DC8069817A818B819C812D813E814F81C1
:100890005885ED80FE800F8118850E946D0BCA017E
:1008A000B901A80197010E944E0BA616B706C8060B
:1008B000D90619F004E010E002C000E010E089E978
:1008C00090E00E94A20269857A858B859C8541E033
:1008D000202F82010E94E10BC2010E94A2023092ED
:1008E000A7012092A60121C08091A8019091A901A1
:1008F0000697D9F419821A821B821C821D821E82DD
:100900001F8218861092A5011092A40169867A862A
:100910008B869C861092A7011092A60181E00E940E
:100920004A0281E061E00E9481021092AE011092C1
:10093000AD010000ABCEEF92FF920F931F937B01AE
:100940008C0120E030E040E05FE40E94470888230B
:100950008CF0C801B70120E030E040E05FE40E9485
:1009600013060E9405099B01AC0120503040404015
:10097000504806C0C801B7010E9405099B01AC019F
:10098000B901CA011F910F91FF90EF900895A0E067
:10099000B0E0EDECF4E00C94AA0BDC012B01FA01C1
:1009A0009C91923008F439C1EB018881823008F4BF
:1009B00033C1943069F4843009F02FC111969C91B1
:1009C00011978981981709F428C1ACE9B0E025C1D5
:1009D000843009F421C18230A9F4923009F01DC19C
:1009E0009A01AD0188E0EA010990AE01E90109929E
:1009F0009E018150C1F7E201898111969C91892362
:100A0000818308C1923009F407C112962D903C9061
:100A10001397EB018A819B811496AD90BD90CD9088
:100A2000DC901797EC80FD800E811F819101281BBF
:100A3000390BB90137FF04C066277727621B730B98
:100A4000603271050CF061C0121613066CF53701A7
:100A50004801062E04C096948794779467940A946C
:100A6000D2F721E030E040E050E004C0220F331F15
:100A7000441F551F6A95D2F72150304040405040E6
:100A80002E213F21402351232115310541055105D8
:100A900021F021E030E040E050E079018A01E628D1
:100AA000F728082919293CC0232BD1F1260E371E1F
:100AB00035014601062E04C0969487947794679476
:100AC0000A94D2F721E030E040E050E004C0220F69
:100AD000331F441F551F6A95D2F7215030404040C4
:100AE00050402A213B214C215D2121153105410532
:100AF000510521F021E030E040E050E059016A0169
:100B0000A628B728C828D9280BC0821593052CF031
:100B10001C01AA24BB24650103C0EE24FF24870125
:100B200011969C91D20111968C91981709F445C0A9
:100B3000992339F0A80197012A193B094C095D094D
:100B400006C0A60195012E193F09400B510B57FD18
:100B500008C01182338222822483358346835783DF
:100B60001DC081E081833382228288279927DC019E
:100B7000821B930BA40BB50B84839583A683B78349
:100B80000DC0220F331F441F551F24833583468316
:100B90005783828193810197938382832481358156
:100BA00046815781DA01C9010197A109B1098F5F17
:100BB0009F4FAF4FBF4328F30BC0918333822282F4
:100BC000EA0CFB1C0C1D1D1DE482F58206831783B5
:100BD00083E08083248135814681578157FF1AC085
:100BE000C901AA2797FDA095BA2F81709070A070B7
:100BF000B0705695479537952795822B932BA42B4C
:100C0000B52B84839583A683B783828193810196D4
:100C100093838283DF0101C0D201CD01CDB7DEB75E
:100C2000E2E10C94C60BA0E2B0E0E9E1F6E00C943E
:100C3000B60B69837A838B839C832D833E834F839A
:100C40005887E9E0EE2EF12CEC0EFD1ECE01019648
:100C5000B7010E947D0A8E010F5E1F4FCE010596DF
:100C6000B8010E947D0A8A8991E089278A8BC70191
:100C7000B801AE01475E5F4F0E94C7040E94A809F9
:100C8000A096E6E00C94D20BA0E2B0E0EAE4F6E035
:100C90000C94B60B69837A838B839C832D833E836C
:100CA0004F835887F9E0EF2EF12CEC0EFD1ECE019C
:100CB0000196B7010E947D0A8E010F5E1F4FCE0183
:100CC0000596B8010E947D0AC701B801AE01475ED2
:100CD0005F4F0E94C7040E94A809A096E6E00C940A
:100CE000D20BA0E2B0E0E7E7F6E00C94AA0B698330
:100CF0007A838B839C832D833E834F835887CE01D9
:100D00000196BE01675F7F4F0E947D0ACE01059666
:100D1000BE016F5E7F4F0E947D0A9985923088F0F8
:100D200089898230C8F0943019F4823051F404C0BB
:100D3000843029F4923081F48CE990E0C6C092307E
:100D400049F420E09A858A89981321E02A87CE0108
:100D50000996BBC0823049F420E09A858A899813AD
:100D600021E02A8BCE014196B0C02D843E844F8471
:100D700058886D887E888F88988CEE24FF248701A0
:100D8000AA24BB24650140E050E060E070E0E0E0B0
:100D9000F0E0C10181709070892BE9F0E60CF71C3E
:100DA000081D191D9A01AB012A0D3B1D4C1D5D1D2F
:100DB00080E090E0A0E0B0E0E614F7040805190533
:100DC00020F481E090E0A0E0B0E0BA01A901480F72
:100DD000591F6A1F7B1FAA0CBB1CCC1CDD1C97FE75
:100DE00008C081E090E0A0E0B0E0A82AB92ACA2AB1
:100DF000DB2A3196E032F10549F0660C771C881C3D
:100E0000991C5694479437942794C3CFFA85EA895E
:100E10002B893C898B859C85280F391F2E5F3F4F7E
:100E200017C0CA0181709070892B61F016950795E3
:100E3000F794E79480E090E0A0E0B0E8E82AF92A8F
:100E40000A2B1B2B76956795579547952F5F3F4F3C
:100E500077FDE7CF0CC0440F551F661F771F17FDA6
:100E60004160EE0CFF1C001F111F2150304040302C
:100E700090E0590790E0690790E4790760F32B8FC1
:100E80003C8FDB01CA018F779070A070B070803406
:100E90009105A105B10561F447FD0AC0E114F10413
:100EA0000105110529F0405C5F4F6F4F7F4F40787F
:100EB0001A8EFE1711F081E08A8F4D8F5E8F6F8F33
:100EC00078A383E0898FCE0149960E94A809A09655
:100ED000E2E10C94C60BA8E1B0E0E1E7F7E00C9486
:100EE000B20B69837A838B839C832D833E834F83EC
:100EF0005887B9E0EB2EF12CEC0EFD1ECE010196C9
:100F0000B7010E947D0A8E010F5E1F4FCE0105962C
:100F1000B8010E947D0A2985223008F47EC03989F3
:100F2000323010F4B8017CC08A859A8989278A8773
:100F3000243011F0223031F4231709F06EC06CE92F
:100F400070E06EC0343039F41D861E861F86188A04
:100F50001C861B8604C0323021F484E08987B701E7
:100F60005FC02B853C858B899C89281B390B3C876E
:100F70002B87ED84FE840F851889AD88BE88CF88C5
:100F8000D88CEA14FB040C051D0540F4EE0CFF1C84
:100F9000001F111F215030403C872B8720E030E09C
:100FA00040E050E080E090E0A0E0B0E460E070E07D
:100FB000EA14FB040C051D0540F0282B392B4A2BA5
:100FC0005B2BEA18FB080C091D09B695A7959795A8
:100FD0008795EE0CFF1C001F111F6F5F7F4F6F3155
:100FE000710531F7DA01C9018F779070A070B07088
:100FF00080349105A105B10561F427FD0AC0E11413
:10100000F1040105110529F0205C3F4F4F4F5F4F60
:1010100020782D873E874F87588BBE01675F7F4FB3
:10102000CB010E94A8096896EAE00C94CE0BA8E1D7
:10103000B0E0EDE1F8E00C94B60B69837A838B8322
:101040009C832D833E834F83588789E0E82EF12CC3
:10105000EC0EFD1ECE010196B7010E947D0A8E01A5
:101060000F5E1F4FCE010596B8010E947D0A89854B
:10107000823040F08989823028F0C701B8010E948F
:10108000F50A01C08FEF6896E6E00C94D20BA8E158
:10109000B0E0EDE4F8E00C94B60B69837A838B83BF
:1010A0009C832D833E834F83588789E0E82EF12C63
:1010B000EC0EFD1ECE010196B7010E947D0A8E0145
:1010C0000F5E1F4FCE010596B8010E947D0A8985EB
:1010D000823040F08989823028F0C701B8010E942F
:1010E000F50A01C08FEF6896E6E00C94D20BA8E1F8
:1010F000B0E0EDE7F8E00C94B60B69837A838B835C
:101100009C832D833E834F83588789E0E82EF12C02
:10111000EC0EFD1ECE010196B7010E947D0A8E01E4
:101120000F5E1F4FCE010596B8010E947D0A89858A
:10113000823040F08989823028F0C701B8010E94CE
:10114000F50A01C081E06896E6E00C94D20BA8E0B5
:10115000B0E0EDEAF8E00C94B30B9B01AC0183E046
:101160008983DA01C9018827B7FD83959927AA27C2
:10117000BB27B82E211531054105510519F482E030
:1011800089833AC08823A9F0203080E0380780E0C6
:10119000480780E8580729F460E070E080E09FECA1
:1011A00030C0EE24FF248701E21AF30A040B150B6A
:1011B00002C079018A018EE1C82ED12CDC82CB825B
:1011C000ED82FE820F831887C801B7010E9459097A
:1011D00001971816190684F4082E04C0EE0CFF1CA3
:1011E000001F111F0A94D2F7ED82FE820F83188729
:1011F000C81AD90ADC82CB82BA82CE0101960E943B
:10120000A8092896E9E00C94CF0BACE0B0E0EBE045
:10121000F9E00C94BA0B69837A838B839C83CE01AB
:101220000196BE016B5F7F4F0E947D0A8D818230E7
:1012300061F1823050F1843021F48E81882351F1A4
:101240002EC02F81388537FD20C06E812F313105AA
:101250001CF06623F9F023C08EE190E0821B930B13
:1012600029853A854B855C8504C056954795379509
:1012700027958A95D2F76623B1F050954095309521
:1012800021953F4F4F4F5F4F0EC020E030E040E0D0
:1012900050E009C02FEF3FEF4FEF5FE704C020E0C1
:1012A00030E040E050E8B901CA012C96E2E00C942D
:1012B000D60BEF92FF920F931F937B018C0180E07E
:1012C000E81680E0F80681E0080780E0180788F457
:1012D0008FEFE816F1040105110531F028F088E0E0
:1012E00090E0A0E0B0E017C080E090E0A0E0B0E0C7
:1012F00012C080E0E81680E0F80680E0080781E090
:10130000180728F088E190E0A0E0B0E004C080E198
:1013100090E0A0E0B0E020E230E040E050E0281BA8
:10132000390B4A0B5B0B04C016950795F794E794AD
:101330008A95D2F7F701EC55FF4F8081281B3109C0
:1013400041095109C9011F910F91FF90EF90089534
:10135000DF92EF92FF920F931F93FC01E480F580E0
:1013600006811781D1808081823048F480E090E04E
:10137000A0E1B0E0E82AF92A0A2B1B2BA5C0843093
:1013800009F49FC0823021F4EE24FF24870105C0B8
:10139000E114F1040105110519F4E0E0F0E096C054
:1013A000628173819FEF623879070CF05BC022E89D
:1013B0003FEF261B370B2A3131052CF020E030E0BF
:1013C00040E050E02AC0B801A701022E04C0769583
:1013D0006795579547950A94D2F781E090E0A0E091
:1013E000B0E004C0880F991FAA1FBB1F2A95D2F72F
:1013F0000197A109B1098E219F21A023B123009754
:10140000A105B10521F081E090E0A0E0B0E09A01F3
:10141000AB01282B392B4A2B5B2BDA01C9018F77C3
:101420009070A070B07080349105A105B10539F4B9
:1014300027FF09C0205C3F4F4F4F5F4F04C0215C26
:101440003F4F4F4F5F4FE0E0F0E02030A0E03A0721
:10145000A0E04A07A0E45A0710F0E1E0F0E07901CB
:101460008A0127C06038710564F5FB01E158FF4F20
:10147000D801C7018F779070A070B070803491054B
:10148000A105B10539F4E7FE0DC080E490E0A0E0CD
:10149000B0E004C08FE390E0A0E0B0E0E80EF91EF9
:1014A0000A1F1B1F17FF05C016950795F794E794B1
:1014B000319687E016950795F794E7948A95D1F7CA
:1014C00005C0EE24FF248701EFEFF0E06E2F679553
:1014D00066276795902F9F77D794DD24D7948E2F1A
:1014E0008695492F462B582F5D29B701CA011F91B8
:1014F0000F91FF90EF90DF900895FC01DB01408198
:1015000051812281622F6F7770E0221F2227221FD4
:101510009381892F880F822B282F30E0991F9927DC
:10152000991F11969C93119721153105A9F5411525
:1015300051056105710511F482E037C082E89FEF23
:1015400013969C938E9312979A01AB0167E0220F3A
:10155000331F441F551F6A95D1F783E08C930DC04C
:10156000220F331F441F551F12968D919C91139784
:10157000019713969C938E931297203080E0380742
:1015800080E0480780E4580758F314962D933D9364
:101590004D935C93179708952F3F310579F44115CA
:1015A00051056105710519F484E08C93089564FF79
:1015B00003C081E08C9312C01C9210C02F573040A2
:1015C00013963C932E93129783E08C9387E0440FFD
:1015D000551F661F771F8A95D1F7706414964D9337
:1015E0005D936D937C93179708951F93DC01FB0126
:1015F0009C91923008F447C08081823008F443C047
:10160000943051F411961C91843099F58181682FA2
:1016100070E0611B71093FC0843021F0923031F4D9
:101620008230B9F18181882389F12DC011961C91F6
:1016300011978230F1F081811817D9F412962D910B
:101640003C911397828193818217930794F0281716
:101650003907BCF014968D919D910D90BC91A02DF1
:101660002481358146815781281739074A075B074E
:1016700018F4112341F00AC082179307A407B50795
:1016800040F4112319F061E070E005C06FEF7FEFC7
:1016900002C060E070E0CB011F910895629FD0010D
:1016A000739FF001829FE00DF11D649FE00DF11D1D
:1016B000929FF00D839FF00D749FF00D659FF00DCC
:1016C0009927729FB00DE11DF91F639FB00DE11DB9
:1016D000F91FBD01CF011124089597FB092E05269E
:1016E0000ED057FD04D014D00AD0001C38F4509509
:1016F0004095309521953F4F4F4F5F4F0895F6F736
:1017000090958095709561957F4F8F4F9F4F08956D
:10171000A1E21A2EAA1BBB1BFD010DC0AA1FBB1FF5
:10172000EE1FFF1FA217B307E407F50720F0A21B67
:10173000B30BE40BF50B661F771F881F991F1A94D4
:1017400069F760957095809590959B01AC01BD01FE
:10175000CF0108952F923F924F925F926F927F92A6
:101760008F929F92AF92BF92CF92DF92EF92FF92B1
:101770000F931F93CF93DF93CDB7DEB7CA1BDB0B5D
:101780000FB6F894DEBF0FBECDBF09942A88398802
:1017900048885F846E847D848C849B84AA84B98409
:1017A000C884DF80EE80FD800C811B81AA81B98115
:1017B000CE0FD11D0FB6F894DEBF0FBECDBFED0129
:1017C0000895EF92FF920F931F93F22FF02E47FD93
:1017D00002C0E4E001C0E4E1242F332727FD309567
:1017E00037FF03C0309521953F4F4F2D512F0F2FBD
:1017F000EE2E0E94020C8F2D912F1F910F91FF90C2
:10180000EF900895A9E0B0E0E8E0FCE00C94AE0BA6
:101810006A01122FA02EBE2C2BE3201718F42CE304
:10182000922E02C0902E9394AE014F5F5F4F27E03F
:10183000092D0E94640DBC018981E82EFF24C70197
:1018400089709070019711F4ADE209C0B1FE02C039
:10185000ABE205C0B0FC02C0A0E001C0A0E2E3FE24
:101860003BC0AA2311F423E001C024E0211710F0AB
:1018700020E002C0121B212FEB2CB4FE02C0322F3D
:101880000AC0F601322F80E202C081933150332327
:10189000E1F7C20ED11CAA2319F0F601A1936F0142
:1018A000F6013196E2FE05C09EE4D6019C9381E4E8
:1018B00004C09EE6D6019C9381E611968C93918399
:1018C0003296DF01832F90E202C09D9381508823DE
:1018D000E1F7E30FF11D40C0E2FE42C0AA2311F47C
:1018E00023E001C024E0211710F020E002C0121B09
:1018F000212FEB2CB4FE02C0922F0AC0F601922FCA
:1019000080E202C0819391509923E1F7C20ED11C6D
:10191000AA2319F0F601A1936F01F6013196E2FEB8
:1019200008C089E4D6018C938EE411968C9386E4EA
:1019300007C089E6D6018C938EE611968C9386E6D5
:1019400081833296DF01892F20E202C02D938150DE
:101950008823E1F7E90FF11D10822EEF3FEFAFC0B2
:10196000161617061CF041E050E003C0AB014F5FB4
:101970005F4FAA2019F480E090E003C08A2D90E028
:10198000019620E030E0AA2311F021E030E0240F9E
:10199000351F280F391F812F90E02817390714F0C1
:1019A00020E002C0121B212F4B2D50E0CA01807194
:1019B0009070B4FC0DC0B3FC0BC0F601322F40E2B6
:1019C00002C0419331503323E1F7C20ED11C01C054
:1019D000322FAA2319F0F601A1936F01892B11F080
:1019E000132F0AC0F601132F80E302C08193115018
:1019F0001123E1F7C30ED11C092D060FBA8090E127
:101A0000892E912C8E209F20E4FE04C0F1E3BF16A6
:101A100009F40150101614F001E003C0093008F079
:101A200008E09B0177FF02C020E030E0CB01019687
:101A3000821B930BFE013196E80FF91F8EE2F82E00
:101A40003B01601A71088A2D90E044275527481BF6
:101A5000590B8FEF2F3F380719F4D601FD926D0116
:101A6000621773072CF06216730614F4808101C0AC
:101A700080E32150304031962417350724F0D601F9
:101A80008D936D01E6CF2617370749F4B5E3BB15F3
:101A900028F0BB1621F48114910409F481E3F601C6
:101AA0008193D601812F90E202C09C9381501196C0
:101AB0008823D9F7E10FF11D108220E030E0C90141
:101AC0002996EEE00C94CA0B283008F027E0332763
:101AD000DA01990F311D87FD91600096610571054E
:101AE00039F432602E5F3D9330E32A95E1F7089593
:101AF0009F3F30F080387105610509F03C5F3C5F25
:101B00003D93913008F08068911DDF93CF931F9330
:101B10000F93FF92EF92192F987F9695E92F969544
:101B20009695E90FFF27E255FF4F99273327EE24BB
:101B3000FF24A701E70105900894079428F4360FC5
:101B4000E71EF81E491F511D660F771F881F991F3A
:101B50000694A1F70590079428F4E70EF81E491F94
:101B6000561FC11D770F881F991F661F0694A1F786
:101B70000590079428F4F80E491F561FC71FD11D62
:101B8000880F991F661F771F0694A1F70590079489
:101B900020F4490F561FC71FD81F990F661F771FC4
:101BA000881F0694A9F784911095177041F0D69577
:101BB000C79557954795F794E7941A95C1F7E4E5CB
:101BC000F0E0689415901591359165919591059087
:101BD0007FE27395E118F10A430B560BC90BD0094C
:101BE000C0F7E10CF11E431F561FC91FD01D7EF424
:101BF000703311F48A95E6CFE894015030F0080F65
:101C00000AF40027021708F4202F2395022F7A33B5
:101C100028F079E37D932A95E9F710C07D932A9502
:101C200089F6069497956795379517951794E11857
:101C3000F10A430B560BC90BD00998F023957E91FE
:101C400073957A3308F070E37C932013B8F77E9194
:101C500070617D9330F0839571E37D9370E32A95F5
:101C6000E1F71124EF90FF900F911F91CF91DF9139
:0C1C7000992787FD90950895F894FFCF08
:101C7C005472616E20447579204B68616E68004621
:101C8C00696E616C2050726F6A6563740043616C9D
:101C9C0063756C61746F720041565220696E2043FB
:101CAC002050726F6772616D003D200000000000D3
:101CBC0000000000000102020303030304040404F7
:101CCC0004040404050505050505050505050505BC
:101CDC00050505050606060606060606060606069C
:101CEC000606060606060606060606060606060688
:101CFC00060606060707070707070707070707076C
:101D0C000707070707070707070707070707070757
:101D1C000707070707070707070707070707070747
:101D2C000707070707070707070707070707070737
:101D3C00070707070808080808080808080808081B
:101D4C000808080808080808080808080808080807
:101D5C0008080808080808080808080808080808F7
:101D6C0008080808080808080808080808080808E7
:101D7C0008080808080808080808080808080808D7
:101D8C0008080808080808080808080808080808C7
:101D9C0008080808080808080808080808080808B7
:101DAC0008080808080808080808080808080808A7
:041DBC000808080803
:00000001FF
