:020000020000FC
:0200000029C015
:02000400C6C074
:1000540048E04EBF4FE54DBF4FEF47BB40E044BBC8
:1000640040EE41BB979840EC4BBF4FE045BF40E0AA
:1000740044BF40EC4ABF78940E94E00108E30E9428
:1000840026010E94E0010EE00E9426010E94E00188
:1000940001E00E9426010E94E00106E00E94260180
:1000A4000E94920191E0A1E0B0E0C1E0D0E0E0E084
:1000B400BE2EDE2E7130F1F7F52DF13051F4A1E0B2
:1000C400B0E0E0E0BE2EDE2E5E2E01E00E942601AE
:1000D40091E070E0603001F5B13059F4CAE0DC9E83
:1000E400D02CD50E152F105D012F0E9432010C94D7
:1000F4005C00CAE0BC9EB02CB50E152F105D0E94AA
:10010400E001913021F400E80E9426019927012F93
:100114000E9432010C945C00653061F0663059F144
:10012400A13041F6B1E0AA270E94E001082F0E9405
:100134003201C0CF8B3209F4BD0C8D3209F4BD18E5
:10014400883711F4BD9CB02C8F3229F46B2C7D2C94
:100154000E948701B82C0E94E00100EC0E94260155
:100164000DE30E9432018F3211F40E9467010E9454
:100174003E010C945C00A1E0B0E0E0E0BE2EDE2E77
:100184005E2E01E00E94260191E00C945C004F93E6
:100194000E94E00160E043B34F7071E0473019F40E
:1001A40050E00C942401423019F451E00C942401E1
:1001B400463009F452E04A3019F453E00C94240117
:1001C400413019F454E00C942401453019F455E0FD
:1001D4000C942401493019F456E00C942401403065
:1001E40019F457E00C942401443009F458E04830E1
:1001F40019F459E00C9424014F3029F450E061E0E3
:100204008BE20C9424014E3029F450E062E08DE23C
:100214000C9424014D3029F450E063E088E70C94F9
:1002240024014C3029F450E064E08FE20C94240162
:100234004B3021F450E065E00C942401433011F478
:1002440050E066E04F9118954F9308BB95989698A7
:10025400979A0E94D50197980E94D8014F910895CA
:100264004F9308BB959A9698979A0E94D5019798B0
:100274000E94D8014F910895EF936B2CD4E67D2E04
:100284000E948701382D132F105DE82DE03019F0FE
:10029400012F0E9432013D9F302DB31A6B2CDAE0FE
:1002A4007D2E0E948701382D132F105D012F0E948F
:1002B40032013D9F302DB31A1B2D105D012F0E947A
:1002C4003201E1E05E2EEF910895DF93D92DD03015
:1002D400D1F0D72DDA30B8F4192D105D012F0E941A
:1002E4003201DFE20D2F0E943201172D105D012F24
:1002F4000E94320100E20E9432010BE20E943201AC
:1003040000E20E943201DF910895EF93E0E08E2E27
:10031400671820F4670C962CEF9118958394F8CF06
:100324000E94E00100E80E942601F3E0E0EF05915D
:10033400003019F00E943201FACF0E94E00100EC73
:100344000E942601F4E0E0E00591003019F00E94DB
:100354003201FACF0E94F0010E94E00101E00E9404
:1003640026010E94E00100E80E942601F4E0EEE08C
:100374000591003019F00E943201FACF0E94E00189
:1003840000EC0E942601F4E0EAE10591003019F046
:100394000E943201FACF0E94F0010E94E00101E0C4
:1003A4000E94260108950000000008951F931CE395
:1003B4000E94D5011A95E1F71F9108951F9314E146
:1003C4000E94D8011A95E1F71F9108951F9314E62E
:1003D4000E94E0011A95E1F71F9108951F9315E01B
:1003E4000E94E8011A95E1F71F9108955472616E15
:1003F40020447579204B68616E68000046696E611F
:100404006C2050726F6A6563740043616C63756C31
:1004140061746F72000041565220696E20417373FB
:06042400656D626C7900B9
:00000001FF
